:020000040800F2
:10000000F804002001010008170E0008E10C0008A8
:10001000150E00086D0100082D0F000800000000FB
:100020000000000000000000000000001B0E00089F
:100030009901000800000000190E00081D0E0008BC
:100040001B0100081B0100081B0100081B01000820
:100050001B0100081B0100081B0100081B01000810
:100060001B0100081B0100081B0100081B01000800
:100070001B0100081B0100081B0100081B010008F0
:100080001B0100081B0100081B0100081B010008E0
:100090001B0100081B0100081B0100081B010008D0
:1000A0001B0100081B0100081B0100081B010008C0
:1000B0001B0100081B0100081B0100081B010008B0
:1000C0001B0100081B0100081B0100081B010008A0
:1000D0001B0100081B0100081B0100081B01000890
:1000E0001B0100081B0100081B010008DFF80CD0F1
:1000F00000F02AF8004800476D0F0008F8040020BF
:100100000648804706480047FEE7FEE7FEE7FEE7B1
:10011000FEE7FEE7FEE7FEE7FEE7FEE7710E0008FA
:10012000ED000008D2B201E000F8012B491EFBD21D
:1001300070470022F6E710B513460A4604461946F2
:10014000FFF7F0FF204610BD064C074D06E0E068C3
:1001500040F0010394E8070098471034AC42F6D30E
:10016000FFF7C8FFC00F0008E00F0008FEE700001F
:1001700070B5084C054601221021204600F012F906
:10018000284600F00DF82046BDE8704000221021FE
:1001900000F008B900080140704772B6FEE70000A1
:1001A00070B5044600F004F90546601C02D004480E
:1001B0000078044400F0FCF8401BA042FAD370BD64
:1001C000000000202DE9F84FDFF8B8910024A9F1D4
:1001D000040B23460F2709F1040AABF1040EC9E012
:1001E0000125A5402A40AA427DD1674ED1F804C01E
:1001F000ACEB0608B44532D014DCBCF1030F3AD0A6
:1002000009DCBCF1000F2AD0BCF1010F1CD0BCF1FD
:10021000020F31D11DE0BCF1110F17D0BCF1120F4C
:100220002AD119E0B8F5881F19D006DCB8F5803F4F
:1002300015D0B8F5801F1FD111E0B8F5001F0ED002
:10024000B8F5041F18D10AE0CB6815E0CB681B1D78
:1002500012E0CB6808330FE0CB680C330CE08B68FE
:100260002BB1012B4FF0080303D0456104E00423B8
:1002700002E0056100E00023FF2A01D8064601E004
:1002800000F104064FEA840501D9A5F12005D6F84E
:10029000008007FA05FC28EA0C0803FA05F548EA8D
:1002A0000508C6F800804D68ED0062D5374DAE698F
:1002B00046F00106AE61AD6924F0030605F00105C4
:1002C0000095334D06EB050CDCF80850A607360FF9
:1002D00007FA06F825EA0805DFF8B880404503D19B
:1002E0004FF0000817E044E0DFF8AC80404502D151
:1002F0004FF001080FE0DFF8A480404502D14FF035
:10030000020808E0DFF89880404502D14FF003086A
:1003100001E04FF0040808FA06F848EA0508CCF8AE
:1003200008804D68D9F80060ED024D4601D51643AE
:1003300000E096432E604D68DAF80060AD02554645
:1003400001D5164300E096432E604D68DBF800604F
:10035000AD035D4601D5164300E096432E604D681F
:10036000DEF80060ED03754601D5164300E09643C4
:100370002E60641C0D682A46E5407FF431AFBDE86D
:10038000F88F000008040140000011100010024026
:100390000000014000080140000C01400010014035
:1003A000001401400AB1016170470904FBE7000035
:1003B00001488068704700000000002070B504000C
:1003C00025D094F83D00002520B984F83C50204603
:1003D00000F0B8F8242084F83D002068016821F07E
:1003E000010101602068016841F40041016020685A
:1003F000016821F40041016000F0FCF94D4A616898
:10040000914201D84C4900E04C49884201D2012078
:1004100070BD4B492368B0FBF1F15E6826F03F06E2
:100420000E435E606368934206D94FF49673594356
:100430004FF47A73B1FBF3F12368491C1E6A26F06E
:100440003F06314319626168914210D84900401E4D
:10045000B0FBF1F2521CC2F30B02042A01D20420B9
:1004600022E0B0FBF1F0401CC0F30B001CE0A268DE
:10047000F2B301EBC10303EB0116431EB3FBF6F32A
:100480005B1C43F480431B0549D092B301EBC102CE
:1004900002EB0111401EB0FBF1F0401CC0F30B0059
:1004A00040F4804040F400402168CA694CF6FF7374
:1004B0009A431043C861D4E90710014320680268D9
:1004C00022F0C00211430160D4E903010143206816
:1004D000826848F2FF339A4311438160D4E90501F1
:1004E00008432168CA6822F0FF021043C86001E097
:1004F0000EE016E02068016841F00101016025640A
:10050000202084F83D00256384F83E50002070BD13
:1005100001EB4106431EB3FBF6F35B1CB3E701207E
:10052000C2E701EB4101401EB0FBF1F0401CC0F3FB
:100530000B00B7E7A086010080841E0000093D0083
:1005400040420F0010B586B0002100910191029148
:10055000039100681349884222D1134CA06940F0EE
:100560000800A061A069694600F0080004904FF4FB
:100570004070009012200190032003900B48FFF779
:1005800021FE0B48416841F0E06141F00201416009
:10059000E06940F40010E061E06900F400100490AC
:1005A00006B010BD0054004000100240000C014095
:1005B0000000014002488168027811448160704760
:1005C00000000020074810B5016841F010010160EB
:1005D000032000F067F80F2000F006F800F024F880
:1005E000002010BD0020024070B50D4D04464FF4B0
:1005F0007A712878B1FBF0F00A490968B1FBF0F094
:1006000000F0CEFA48B9102C07D200222146501E25
:1006100000F028F800206C6070BD012070BD000063
:10062000000000200C0000200C4808B5816941F052
:1006300001018161816901F001010091C16941F00D
:100640008051C161C06900F0805000900448416849
:1006500021F0E06141F00071416008BD00100240EE
:1006600000000140F0B40E4B1B680C46C3F302239C
:10067000C3F10705042D00D90425191D072901D24E
:10068000002300E0DB1E012606FA05F1491E214089
:1006900099409E40761E16403143F0BC00F047BCA6
:1006A0000CED00E0064900F0070208684FF6FF0372
:1006B000184040EA0220034A1043086070470000D7
:1006C0000CED00E00000FA052DE9F0470F460500AB
:1006D00061D0434E306800F00700B84209D230685C
:1006E00020F0070038433060306800F00700B8425F
:1006F00051D128683B4C810712D5400703D560686B
:1007000040F4E06060602878000703D5606840F43A
:10071000605060606068A96820F0F0000843606085
:100720002878C00728D06868012810D021680228DE
:1007300010D0890700292EDA616821F003010143F6
:100740006160FFF735FE804641F288390DE021688F
:100750008903EFE78901EDE7FFF72AFEA0EB080127
:10076000494502D90320BDE8F0876068696800F058
:100770000C00B0EB810FEFD1306800F00700B842F9
:100780000BD9306820F0070038433060306800F043
:100790000700B84201D00120E5E72878400705D5D9
:1007A0006068E96820F4E06008436060287800072A
:1007B00006D56068296920F4605040EAC100606095
:1007C00000F038F86168084AC1F30311515CC84071
:1007D0000649086006480068FFF706FF0020C2E7E8
:1007E0000020024000100240A80F00080C0000206A
:1007F000040000200448054900684968044AC1F320
:100800000221515CC84070470C00002000100240DB
:10081000B80F00080448054900684968044AC1F354
:10082000C221515CC84070470C00002000100240FB
:10083000B80F00080E4A51680E4801F00C03042B53
:1008400011D0082B0FD10C48C1F38343C903C05CFE
:100850000AD55168084AC1F34041921E515C054ACD
:100860005043B0FBF1F07047044948437047000023
:100870000010024000127A00980F000800093D00A5
:100880002DE9F84F040070D02078C04DC00749D042
:100890006868C0F38100012807D06868C0F3810050
:1008A000022809D16868C00306D52868800339D5B5
:1008B00060680028E7D035E06068B0F5803F0BD075
:1008C00010B1B0F5A02F11D0286820F48030286036
:1008D000286820F4802002E0286840F480302860F6
:1008E000606890B1FFF764FD06460AE0286840F4AE
:1008F00080202860F0E700BFFFF75AFD801B6428C6
:1009000073D828688003F7D50CE0FFF751FD064641
:1009100005E000BFFFF74CFD801B6428F0D8286875
:100920008003F7D420789A4E80074FF001094FF0EA
:10093000000839D5686810F00C0F07D06868C0F35C
:100940008100022809D16868C00306D4286880079E
:1009500014D52069012808D110E02069B0B1C6F88B
:100960000090FFF725FD074605E00AE1FFF720FDAF
:10097000C01B0228C4D828688007F7D52868616999
:1009800020F0F80040EAC10028600DE0C6F80080C1
:10099000FFF70EFD074604E0FFF70AFDC01B022823
:1009A00023D828688007F7D4207800072CD5794809
:1009B000A169D9B1C0F80090FFF7FAFC074604E03E
:1009C000FFF7F6FCC01B02280FD8686A8007F7D52E
:1009D00071484FF4FA510068B0FBF1F0009000BF8D
:1009E0000098411E0091FAD20EE080E0C0F800802D
:1009F000FFF7DEFC074604E0FFF7DAFCC01B022825
:100A000075D8686A8007F7D42078400760D5E86910
:100A10000027C00008D4E86940F08050E861E86928
:100A2000012700F0805000905C480168C90513D48C
:100A30000168834641F480710160FFF7B9FC82468A
:100A400006E000BFFFF7B4FCA0EB0A0064284ED814
:100A5000DBF80000C005F5D5E06801280AD008B130
:100A6000052813D0286A20F001002862286A20F0A7
:100A7000040002E0286A40F001002862E06841F2C8
:100A8000883B98B1FFF794FC82460BE0286A40F05F
:100A900004002862EEE700BFFFF78AFCA0EB0A0122
:100AA00059455AD8286A8007F6D50CE0FFF780FC34
:100AB000824605E0FFF77CFCA0EB0A0159454CD8C3
:100AC000286A8007F6D41FB1E86920F08050E861F9
:100AD000E06988B36968C1F38101022944D0022822
:100AE000C6F8608004D0FFF763FC044638E034E0C9
:100AF000FFF75EFC074604E0FFF75AFCC01B022824
:100B00002BD828688001F7D4206AB0F5803F05D142
:100B10006868A16820F4003008436860D4E90801DF
:100B20000843696821F4741108436860C6F860904E
:100B3000FFF73EFC044606E025E000BFFFF738FC67
:100B4000001B022809D828688001F7D51BE000BFE8
:100B5000FFF72EFC001B022802D90320BDE8F88F06
:100B600028688001F4D40EE00128F7D06868226A72
:100B700000F48031914204D1616A00F4701088421F
:100B800001D00120EAE70020E8E700000010024061
:100B900000004242800442420C00002000700040ED
:100BA00010B5401EB0F1807F01D3012010BD4FF081
:100BB000E02460610F21601700F0B9F90020A06106
:100BC00007202061002010BD70B5040004D094F807
:100BD0004100002510B106E0012070BD84F84050AE
:100BE000204600F023F8242084F841002068C168E2
:100BF00021F40051C160204600F03CF920680169F1
:100C000021F4904101612068416921F02A0141618C
:100C10002068C16841F40051C1606564202084F8F7
:100C2000410084F842006563002070BD30B585B096
:100C300000240094019402940394244D03682448F2
:100C400002210322AB421AD1C36943F40033C361CA
:100C5000C36903F400330493836943F0040383619D
:100C600080691C4D00F0040004900420CDE90001CF
:100C7000039269462846FFF7A5FA08201CE0164DA6
:100C8000AB4220D1C36943F48023C361C36903F439
:100C900080230493836943F008038361806903928E
:100CA00000F0080004902815CDE900010B4D6946BD
:100CB0002846FFF787FAE814CDE90004694628467C
:100CC0000294FFF77FFA05B030BD000000440040F9
:100CD000001002400008014000480040000C0140A4
:100CE000FEE7000070B586B000241B480094019414
:100CF00002940394816941F020018161816901F0CE
:100D000020010491816941F004018161816901F050
:100D100004010491816941F00801816180690F4EED
:100D200000F008000490002210213046FFF73AFB43
:100D300010200125CDE900050220CDE902406946D9
:100D40003046FFF73FFAE8038DE831006946044872
:100D5000FFF738FA06B070BD0010024000080140ED
:100D6000000C01400D4810B50B4901600C49416071
:100D700000214FF480428160C0E90312416181612A
:100D8000C1610162FFF71AFB002803D0BDE81040E3
:100D9000FFF703BA10BD000000540040100000200F
:100DA000A08601000C4810B50A4901604FF4E131FA
:100DB0004160002181600C22C160C0E904128161A0
:100DC000C161FFF701FF002803D0BDE81040FFF725
:100DD000E4B910BD00440040640000200C4810B588
:100DE0000A4901604FF4E1314160002181600C2229
:100DF000C160C0E904128161C161FFF7E5FE00280E
:100E000003D0BDE81040FFF7C8B910BD004800404E
:100E1000AC000020FEE7FEE770477047FFF7CABB53
:100E200010B590B028216846FFF783F914210AA86D
:100E3000FFF77FF902200090012004901020002489
:100E4000059007946846FFF71BFD08B172B6FEE7F0
:100E50000F20CDE90A040C940D9400210AA80E94E9
:100E6000FFF732FC002801D072B6FEE710B010BDCB
:100E70007047000070B5044600680169E26821F41B
:100E80004051114301612169A06808436169084329
:100E90002168CA6841F20C639A430243CA60206821
:100EA0004169A26921F44071114341611E492068E2
:100EB000884202D1FFF7AEFC01E0FFF79BFC00EB9C
:100EC000C00101EB0012606864218000B2FBF0F306
:100ED000B3FBF1F36FF018067343B2FBF0F5B2FB0E
:100EE000F0F605EB8305322303EB0515B5FBF1F5B1
:100EF000B6FBF1F605F0F00505EB0615B2FBF0F6D2
:100F0000B2FBF0F0B0FBF1F06FF01802504306EBCB
:100F1000800003EB0010B0FBF1F0216800F00F003F
:100F20002844886070BD000000380140FEE70907D2
:100F3000090E002804DB00F1E02080F8001470475F
:100F400000F00F0000F1E02080F8141D704702E06F
:100F500008C8121F08C1002AFAD170477047002044
:100F600001E001C1121F002AFBD17047FFF72AFBE5
:100F7000FFF756FFFFF7B6FEFFF7F4FEFFF712FF8D
:100F8000FFF72CFF4FF47A746420FFF7F1F8204646
:100F9000FFF706F9F8E7010202030405060708094E
:100FA0000A0B0C0D0E0F10100000000000000000D6
:100FB00001020304060708090000000001020304FF
:100FC000E00F000800000020100000004E0F000895
:100FD000F00F000810000020E80400005E0F000879
:100FE00001000000100000000000000000127A0064
:04000005080000ED02
:00000001FF
