:020000040800F2
:1000000028050020010100089B2000082D19000888
:1000100099200008CD0900085D23000800000000B9
:100020000000000000000000000000009F20000809
:10003000CF090008000000009D200008A120000852
:100040001B0100081B0100081B0100081B01000820
:100050001B0100081B0100081B0100081B01000810
:100060001B0100081B0100081B0100081B01000800
:100070001B0100081B0100081B0100081B010008F0
:100080001B0100081B0100081B0100081B010008E0
:100090001B0100081B0100081B0100081B010008D0
:1000A0001B0100081B0100081B0100081B010008C0
:1000B0001B0100081B0100081B0100081B010008B0
:1000C0001B0100081B0100081B0100081B010008A0
:1000D0001B0100081B0100081B0100081B01000890
:1000E0001B0100081B0100081B010008DFF80CD0F1
:1000F00000F06EFB004800470D2D00082805002089
:100100000648804706480047FEE7FEE7FEE7FEE7B1
:10011000FEE7FEE7FEE7FEE7FEE7FEE7F520000864
:10012000ED000008202A04DB203A21FA02F0002129
:10013000704721FA02F3D040C2F1200291400843F7
:1001400019467047D2B201E000F8012B491EFBD2DC
:1001500070470022F6E710B513460A4604461946D2
:10016000FFF7F0FF204610BDF0B480EA0102D40F83
:100170004200B2EB410F02D20246084611464A0045
:1001800042D0C30DDDB2C1F3C752AD1A202D35DA0E
:10019000C1F3160141F4000204B15242C5F1200638
:1001A00002FA06F12A411044B3EBD05F23D0C4B168
:1001B000012DA0EBC35009DCF0BC4FF0004202EA75
:1001C000C352DBB200F5000000F01CB9400000F1A2
:1001D000807000EBC350A0F1807040EAD1704900FC
:1001E00009E0490841EAC071A0EBC35000F50000E6
:1001F000400800EBC350F0BC00F0FBB861420122A4
:1002000002EB4101001BF6E7F0BC704781F00041B2
:10021000AAE780F00040A7E780EA010210B502F0EB
:100220000043400022D04A001FD0010E01EB1261B2
:10023000C0F35600C2F3560240F4000042F400023C
:10024000A0FB022000047F39140400D0401C50EAB7
:10025000124001D44000491EC2B20C0604EBD0107B
:10026000401C4008802A02D003E0002010BD20F08E
:100270000100002900DA0020184310BD30B480EAE4
:10028000010202F0004530F0004221F0004013D09E
:1002900090B1C30DD40DC2F31601C0F31600E41AD9
:1002A00041F4000140F400027D34914201D3641C0A
:1002B00000E04900002C02DA30BC002070474FF407
:1002C00000000023914201D3891A034340084FEAFA
:1002D0004101F7D151B1914202D14FF0004105E007
:1002E00002D24FF0010101E06FF0010103EBC450B5
:1002F000284430BC00F07DB8C10F80EAE0700844AB
:10030000CA079623002100F07DB8962300221146EB
:1003100000F078B800F0004230F000400AD0C10D83
:1003200001F56071C0F3160042EA0151C2084007AE
:10033000114370470020014670470000002801DB90
:10034000C0F10040002901DBC1F10041814270474A
:10035000002801DBC0F10040002901DBC1F10041B0
:100360008842704730B50B46014600202022012408
:1003700009E021FA02F59D4205D303FA02F5491B73
:1003800004FA02F52844151EA2F10102F1DC30BD89
:100390002DE9F05F0546002092469B4688460646BA
:1003A000814640241BE02846414647462246FFF747
:1003B000B9FE53465A46C01A914110D31146184609
:1003C000224600F017FA2D1A67EB01084F46224625
:1003D0000120002100F00EFA17EB00094E41201E0B
:1003E000A4F10104DFDC484631462A464346BDE815
:1003F000F09F0029A8BF7047401C490008BF20F0AB
:100400000100704710B4B0FA80FC00FA0CF050EA1A
:10041000010404BF10BC704749B1CCF1200421FA9B
:1004200004F411FA0CF118BF012121430843A3EB96
:100430000C01CB1D4FEA00614FEA102042BF0020A3
:1004400010BC704700EBC35010440029A4BF10BC7F
:100450007047401C490008BF20F0010010BC7047E5
:100460002DE9FE4F804681EA0300C00F0C46009044
:1004700021F0004123F00045B8EB0200A94105D26C
:100480004046214690461C460B46024623F000405B
:10049000104347D0270DC7F30A00C3F30A51029057
:1004A000401A019040286BDAC3F3130040F4801B1C
:1004B0000098924620B10023D2EB030A63EB0B0BAA
:1004C00001985946C0F14002504600F093F90646A3
:1004D0000D4650465946019A00F09BF910EB080072
:1004E0006141002487EA115284EAE7731A4340D03D
:1004F000009A62B3019A012A4FEA075215DC001BE9
:1005000061EB02014FF0004202EA0752CDE90042DE
:10051000001C41F5801132462B4600F09BF903B0D8
:10052000BDE8F08F40462146F9E7001B61EB020170
:10053000001C41F5801300185B412018A2F500173C
:1005400047EB030140EAD570B6196D4111E06D0823
:100550004FEA360645EAC0754FEA0752001B61EBC9
:100560000201001C41F5801149084FEA30000019D2
:10057000514132462B4603B0BDE8F04F00F05BB965
:100580000098012240000023D0EB020263EBE073ED
:10059000009821464FEAE074B8EB000061EB0401DB
:1005A000E9E783F000435BE781F0004158E72DE97C
:1005B000FE4F81EA030404F0004421F0004100945E
:1005C0004FF0000B23F0004350EA01045ED052EAE2
:1005D00003045BD0C3F30A54C1F30A552C44A4F2BC
:1005E000F3340194A0FB0254C1F3130141F48011D0
:1005F000C3F3130343F4801301FB024400FB034ED7
:10060000840A970A44EA815447EA8357A4FB07689F
:1006100002958D0A05FB07854FEA932C04FB0C54C9
:100620002705029D4FEA065847EA1637B5EB08053D
:100630006EEB070C870E920E47EA811742EA83128F
:10064000A7FB0201B6EB0B0164EB00042B0D43EAA0
:100650000C335E1844EB1C50DA465146E7FB0201AE
:10066000C5F313044FEA0B3343EA14534FEA043241
:10067000019C43EA0603A4F10C040294009CCDE91A
:1006800000B400F0E7F803B0BDE8F08F00200146A9
:10069000F9E72DE9F04D81EA030404F0004B21F065
:1006A000004514464FF0000A23F0004150EA0502CD
:1006B00020D054EA01021DD0C5F30A570246C5F303
:1006C0001303C1F31300C1F30A5640F4801543F439
:1006D0008013A7EB0608101BD64608F2FD3873EB13
:1006E000050002D308F1010801E092185B41B8F15E
:1006F000000F03DA00200146BDE8F08D00204FF422
:100700008011064684460EE0171B73EB050705D3E0
:10071000121B63EB050306434CEA010C49084FEA40
:10072000300092185B4150EA0107EDD152EA030014
:1007300012D082EA040083EA0501084305D0101BA9
:10074000AB4106D20122002306E000224FF0004315
:1007500002E06FF0010253101AEB06004CEB085157
:1007600010EB0A0041EB0B01BDE8F04D00F063B85F
:10077000C1F30A52C1F3130140F2FF3341F4801177
:100780009A4202DA00200146704740F233439A420F
:10079000A2F2334202DC5242FFF7C4BC00F02AB896
:1007A00030B5041E71F1000404DB4FF000444042F8
:1007B00064EB0101141E73F1000405DB1C464FF0CD
:1007C0000043524263EB0403994208BF904230BD9C
:1007D000064C074D06E0E06840F0010394E807008E
:1007E00098471034AC42F6D3FFF784FCF04D000874
:1007F000104E0008202A04DB203A00FA02F1002003
:1008000070479140C2F1200320FA03F3194390404E
:100810007047202A06DBCB17203A41FA02F043EA60
:10082000E07306E041FA02F3D040C2F120029140A9
:1008300008431946704710B5141E73F1000408DA16
:10084000401C41F1000192185B411A4301D120F094
:10085000010010BD2DE9F04D92469B4611B1B1FA51
:1008600081F202E0B0FA80F220329046FFF7C2FF38
:1008700004460F4640EA0A0041EA0B0153465A4635
:10088000084313D0114653EA010019D0C8F14002C1
:100890005046FFF747FC05460E465046594642462D
:1008A000FFF7A8FF084305D0012004E020463946A1
:1008B000BDE8F08D0020054346EAE0762C4337433F
:1008C0000A986305E40AA0EB08000022FD0A44EA46
:1008D00047540A3002D500200146E9E70105101906
:1008E0006941DDE9084500196941BDE8F04DA2E71D
:1008F0002DE9F04700F070F92E4C2168884257D35B
:10090000491D216001F0C2FA2B4DE0692946FFF72D
:1009100083FC216AFFF728FC064629466069FFF739
:100920007BFC616AFFF775FC81462946A069FFF7E9
:1009300073FCA16AFFF718FC8046D4E9020180F03D
:10094000004002F017FA1D4F3946FFF765FCDFF84B
:1009500070A05146FFF792FC05466068E16880F0A0
:10096000004002F007FA3946FFF756FC5146FFF700
:1009700085FCDFF850A00746514628462662FFF75F
:100980004BFC114E054631464846FFF745FC2946CB
:10099000FFF7EAFB606251463846FFF73DFC05462B
:1009A00031464046FFF738FC2946FFF7DDFBA062E1
:1009B000BDE8F087000000200AD7A33B00003443C5
:1009C000DB0F4940300D433D2DCF733FFEE77047AD
:1009D00072B6FEE770B5044600F0FEF80546601CEE
:1009E00002D004480078044400F0F6F8401BA0420E
:1009F000FAD370BD300000202DE9F84FDFF8B89130
:100A00000024A9F1040B23460F2709F1040AABF1D6
:100A1000040EC9E00125A5402A40AA427DD1674EB7
:100A2000D1F804C0ACEB0608B44532D014DCBCF1FC
:100A3000030F3AD009DCBCF1000F2AD0BCF1010F42
:100A40001CD0BCF1020F31D11DE0BCF1110F17D049
:100A5000BCF1120F2AD119E0B8F5881F19D006DCB5
:100A6000B8F5803F15D0B8F5801F1FD111E0B8F55B
:100A7000001F0ED0B8F5041F18D10AE0CB6815E0AE
:100A8000CB681B1D12E0CB6808330FE0CB680C333A
:100A90000CE08B682BB1012B4FF0080303D04561AC
:100AA00004E0042302E0056100E00023FF2A01D8EE
:100AB000064601E000F104064FEA840501D9A5F1DC
:100AC0002005D6F8008007FA05FC28EA0C0803FA8E
:100AD00005F548EA0508C6F800804D68ED0062D5C6
:100AE000374DAE6946F00106AE61AD6924F00306EC
:100AF00005F001050095334D06EB050CDCF80850B8
:100B0000A607360F07FA06F825EA0805DFF8B880C9
:100B1000404503D14FF0000817E044E0DFF8AC8017
:100B2000404502D14FF001080FE0DFF8A4804045B6
:100B300002D14FF0020808E0DFF89880404502D16A
:100B40004FF0030801E04FF0040808FA06F848EAFD
:100B50000508CCF808804D68D9F80060ED024D46D4
:100B600001D5164300E096432E604D68DAF8006028
:100B7000AD02554601D5164300E096432E604D6800
:100B8000DBF80060AD035D4601D5164300E09643F7
:100B90002E604D68DEF80060ED03754601D5164302
:100BA00000E096432E60641C0D682A46E5407FF401
:100BB00031AFBDE8F88F00000804014000001110BB
:100BC000001002400000014000080140000C0140FC
:100BD0000010014000140140014880687047000087
:100BE0003000002070B5040025D094F83D000025A9
:100BF00020B984F83C50204600F07EFA242084F886
:100C00003D002068016821F0010101602068016851
:100C100041F4004101602068016821F40041016055
:100C200000F0C2FB4D4A6168914201D84C4900E096
:100C30004C49884201D2012070BD4B492368B0FB6A
:100C4000F1F15E6826F03F060E435E6063689342F2
:100C500006D94FF4967359434FF47A73B1FBF3F10D
:100C60002368491C1E6A26F03F06314319626168F9
:100C7000914210D84900401EB0FBF1F2521CC2F361
:100C80000B02042A01D2042022E0B0FBF1F0401C48
:100C9000C0F30B001CE0A268F2B301EBC10303EB4D
:100CA0000116431EB3FBF6F35B1C43F480431B05A4
:100CB00049D092B301EBC10202EB0111401EB0FB1F
:100CC000F1F0401CC0F30B0040F4804040F40040C1
:100CD0002168CA694CF6FF739A431043C861D4E98E
:100CE000071001432068026822F0C002114301602E
:100CF000D4E9030101432068826848F2FF339A4334
:100D000011438160D4E9050108432168CA6822F0D3
:100D1000FF021043C86001E00EE016E020680168A1
:100D200041F0010101602564202084F83D00256325
:100D300084F83E50002070BD01EB4106431EB3FB1A
:100D4000F6F35B1CB3E70120C2E701EB4101401E53
:100D5000B0FBF1F0401CC0F30B00B7E7A086010028
:100D600080841E0000093D0040420F002DE9FF4F26
:100D700083B00025DDE910799A4693460446DDF8F4
:100D800048800095FFF728FF064694F83D0020288C
:100D90007CD11923012288492046009600F0DCFE10
:100DA0000028F5D194F83C0001286FD0012084F888
:100DB0003C0020680168C90703D1016841F00101C6
:100DC00001602068016821F400610160222084F83C
:100DD0003D00402084F83E0025646762A4F82A9014
:100DE000608D20857548E062CDE9008653465A46FD
:100DF0002046049900F0B2FD00287CD1208DDFF858
:100E0000C091202768B1012814D002282068016809
:100E10001ED041F4806101602068416980690090C2
:100E2000BCE02068416981690091016841F400716A
:100E30000160B3E02068016821F48061016072B64E
:100E40002068416981690091016841F400710AE0FC
:100E500041F40061016072B62068416981690091C6
:100E6000016821F48061016062B697E0032865D8CB
:100E700001280CD0022843464FF000024946204684
:100E800000960BD000F068FEA8BB0CE091E0324663
:100E90004146204600F006FF68BB72E000F05CFEB1
:100EA00048BB72B633E02068016821F480610160BC
:100EB00072B620680069616A0870606A401C6062EE
:100EC000208D401E2085608D401E60853D4846F285
:100ED000A8110068B0FBF1F0C0EBC00000EB80008F
:100EE0000090401E009007D020684069C043400732
:100EF0000DD50098F5E727E044F8305F6773A573D8
:100F0000206940F02000206162B625731CE0206853
:100F1000016841F40071016020680069616A08702D
:100F2000606A401C6062218D491E2185618D491EC9
:100F3000618562B621680969017026E03246414642
:100F4000204600F0AFFE18B1012007B0BDE8F08FD9
:100F500020680069616A0870606A401C6062208DC8
:100F6000401E81B22185608D401E608520684269E7
:100F7000D243520712D4032903D1016821F48061BE
:100F8000016020680069616A0870606A401C6062E4
:100F9000208D401E2085608D401E6085208D00289C
:100FA0007FF464AF84F83D7084F83E5084F83C5080
:100FB000CBE70220C9E70000020010000000FFFF9D
:100FC000040001003C0000202DE9FF4F83B09A4649
:100FD000DDE9119793460446DDF84080FFF7FCFDFC
:100FE000054694F83D0020287FD11923012240496D
:100FF0002046009500F0B0FD002876D194F83C0022
:10100000012872D0012084F83C0020680168C907DB
:1010100003D1016841F0010101602068016821F4F9
:1010200000610160212084F83D00402084F83E00EA
:1010300000262664C4F82480A4F82A90608D2085B8
:101040002C48E062CDE9007553465A462046049983
:1010500000F002FD70B930E02A463946204600F023
:1010600059FE58B1206C042804D12068016841F46D
:1010700000710160012007B0BDE8F08F606A21684F
:1010800000780861606A401C6062218D491E89B247
:101090002185628D521E628522685369DB435B079E
:1010A0000BD469B100781061606A401C6062208DC9
:1010B000401E2085608D401E6085208D0028CBD18C
:1010C0002A463946204600F01BFD0028CAD154F8B4
:1010D0003D0B016841F400710160202004F81E09F5
:1010E000E67766770020C6E7FFE70220C3E7000047
:1010F000020010000000FFFF10B586B00021009133
:1011000001910291039100681349884222D1134C46
:10111000A06940F00800A061A069694600F00800DD
:1011200004904FF44070009012200190032003902F
:101130000B48FFF761FC0B48416841F0E06141F06A
:1011400002014160E06940F40010E061E06900F4F0
:101150000010049006B010BD005400400010024082
:10116000000C0140000001400248816802781144EF
:101170008160704730000020074810B5016841F0D9
:1011800010010160032000F067F80F2000F006F85E
:1011900000F024F8002010BD0020024070B50D4D75
:1011A00004464FF47A712878B1FBF0F00A490968D7
:1011B000B1FBF0F000F0CEFA48B9102C07D20022B3
:1011C0002146501E00F028F800206C6070BD012000
:1011D00070BD0000300000203C0000200C4808B525
:1011E000816941F001018161816901F00101009192
:1011F000C16941F08051C161C06900F08050009028
:101200000448416821F0E06141F00071416008BD8F
:101210000010024000000140F0B40E4B1B680C4669
:10122000C3F30223C3F10705042D00D90425191DBA
:10123000072901D2002300E0DB1E012606FA05F192
:10124000491E214099409E40761E16403143F0BC15
:1012500001F096B80CED00E0064900F007020868BE
:101260004FF6FF03184040EA0220034A104308608B
:10127000704700000CED00E00000FA052DE9F04792
:101280000F46050061D0434E306800F00700B842B9
:1012900009D2306820F0070038433060306800F031
:1012A0000700B84251D128683B4C810712D540074E
:1012B00003D5606840F4E06060602878000703D5DB
:1012C000606840F4605060606068A96820F0F000D9
:1012D000084360602878C00728D06868012810D0CB
:1012E0002168022810D0890700292EDA616821F0D0
:1012F000030101436160FFF76FFC804641F28839CA
:101300000DE021688903EFE78901EDE7FFF764FC51
:10131000A0EB0801494502D90320BDE8F0876068C9
:10132000696800F00C00B0EB810FEFD1306800F07D
:101330000700B8420BD9306820F00700384330600E
:10134000306800F00700B84201D00120E5E72878B6
:10135000400705D56068E96820F4E06008436060F4
:101360002878000706D56068296920F4605040EAB3
:10137000C100606000F038F86168084AC1F30311E9
:10138000515CC8400649086006480068FFF706FF40
:101390000020C2E70020024000100240D64D0008A5
:1013A0003C000020340000200448054900684968DA
:1013B000044AC1F30221515CC84070473C00002040
:1013C00000100240E64D00080448054900684968DD
:1013D000044AC1F3C221515CC84070473C00002060
:1013E00000100240E64D00080E4A51680E4801F018
:1013F0000C03042B11D0082B0FD10C48C1F38343ED
:10140000C903C05C0AD55168084AC1F34041921E25
:10141000515C054A5043B0FBF1F070470449484322
:10142000704700000010024000127A00C64D00080C
:1014300000093D002DE9F84F040070D02078C04D20
:10144000C00749D06868C0F38100012807D06868E8
:10145000C0F38100022809D16868C00306D5286856
:10146000800339D560680028E7D035E06068B0F5C2
:10147000803F0BD010B1B0F5A02F11D0286820F418
:1014800080302860286820F4802002E0286840F43A
:1014900080302860606890B1FFF79EFB06460AE046
:1014A000286840F480202860F0E700BFFFF794FB35
:1014B000801B642873D828688003F7D50CE0FFF7F9
:1014C0008BFB064605E000BFFFF786FB801B642808
:1014D000F0D828688003F7D420789A4E80074FF020
:1014E00001094FF0000839D5686810F00C0F07D0DB
:1014F0006868C0F38100022809D16868C00306D477
:101500002868800714D52069012808D110E02069D7
:10151000B0B1C6F80090FFF75FFB074605E00AE1AF
:10152000FFF75AFBC01B0228C4D828688007F7D5EC
:101530002868616920F0F80040EAC10028600DE0E9
:10154000C6F80080FFF748FB074604E0FFF744FBBE
:10155000C01B022823D828688007F7D4207800070A
:101560002CD57948A169D9B1C0F80090FFF734FBB8
:10157000074604E0FFF730FBC01B02280FD8686A5B
:101580008007F7D571484FF4FA510068B0FBF1F0CD
:10159000009000BF0098411E0091FAD20EE080E05A
:1015A000C0F80080FFF718FB074604E0FFF714FBC4
:1015B000C01B022875D8686A8007F7D420784007D6
:1015C00060D5E8690027C00008D4E86940F0805081
:1015D000E861E869012700F0805000905C480168EC
:1015E000C90513D40168834641F480710160FFF797
:1015F000F3FA824606E000BFFFF7EEFAA0EB0A001E
:1016000064284ED8DBF80000C005F5D5E068012855
:101610000AD008B1052813D0286A20F001002862FA
:10162000286A20F0040002E0286A40F001002862E5
:10163000E06841F2883B98B1FFF7CEFA82460BE0B2
:10164000286A40F004002862EEE700BFFFF7C4FA02
:10165000A0EB0A0159455AD8286A8007F6D50CE054
:10166000FFF7BAFA824605E0FFF7B6FAA0EB0A01E7
:1016700059454CD8286A8007F6D41FB1E86920F094
:101680008050E861E06988B36968C1F3810102298B
:1016900044D00228C6F8608004D0FFF79DFA0446C3
:1016A00038E034E0FFF798FA074604E0FFF794FAD1
:1016B000C01B02282BD828688001F7D4206AB0F517
:1016C000803F05D16868A16820F400300843686055
:1016D000D4E908010843696821F47411084368607B
:1016E000C6F86090FFF778FA044606E025E000BFF0
:1016F000FFF772FA001B022809D828688001F7D585
:101700001BE000BFFFF768FA001B022802D9032084
:10171000BDE8F88F28688001F4D40EE00128F7D0E6
:101720006868226A00F48031914204D1616A00F451
:101730007010884201D00120EAE70020E8E70000AD
:101740000010024000004242800442423C0000205F
:101750000070004010B5401EB0F1807F01D3012021
:1017600010BD4FF0E02460610F21601700F008FE0B
:101770000020A06107202061002010BD70B504008A
:1017800004D094F84100002510B106E0012070BD9E
:1017900084F84050204600F023F8242084F84100CB
:1017A0002068C16821F40051C160204600F0CAFCE5
:1017B0002068016921F4904101612068416921F0AC
:1017C0002A0141612068C16841F40051C16065642B
:1017D000202084F8410084F842006563002070BD39
:1017E00070B586B000240094019402940394234EB3
:1017F0000368234902200322224DB34219D18B6989
:1018000043F480438B618B6903F4804304938B69B9
:1018100043F004038B618969039201F00401049190
:101820000102CDE9001069462846FFF7E5F82815C2
:101830001BE0154EB3421FD1CB6943F40033CB619B
:10184000CB6903F4003304938B6943F004038B6189
:101850008969039201F0040104910421CDE900108B
:1018600069462846FFF7C8F80820CDE90004694614
:1018700028460294FFF7C0F806B070BD003801405A
:101880000010024000080140004400402DE9F843E8
:10189000044690F84100984616460D46202802D08E
:1018A0000220BDE8F88385B17EB10020606421206C
:1018B00084F84100FFF790F9A6848146E684A06889
:1018C0002027B0F5805F02D003E00120E9E720691E
:1018D00010B12E4600250EE000260CE080212046A7
:1018E00000F08CFCA8B9C6B116F8010B216848605D
:1018F000E08C401EE084E08C4B464FF00002CDF8B7
:1019000000800028EAD14FF04001204600F076FC2C
:1019100040B184F841700320C3E735F8020BC0F3EF
:101920000800E3E784F841700020BAE7FEE70168A9
:101930004A69D24352050FD46FF480624A61002194
:1019400040F8301F202242738173026942F0040282
:101950000261017301207047002070472DE9F84FA4
:101960000446006889460B9D01689846174641F475
:10197000806101602068016841F480710160009518
:101980004FF0011B0022594620460A9B00F0E4F864
:101990004FF4007A40B120680068C00501D5C4F852
:1019A00040A00320BDE8F88F216809F0FE0008611F
:1019B0002B46284920460A9A00F016F9F0BB206809
:1019C0004169806900902A4620460A9900F0A2F9F0
:1019D00040B1206C04283AD12068016841F40071BC
:1019E000016034E0FEB2B8F1010F09D02168380A75
:1019F00008612A4620460A9900F08CF90028E8D1AF
:101A0000206806612A4620460A9900F083F90028DA
:101A1000DFD12068016841F48071016000950022E7
:101A2000594620460A9B00F097F80028B3D1216858
:101A300009F0FF0040F00100086100E007E02B46DC
:101A4000044920460A9A00F0CFF80028AAD00120C5
:101A5000A8E70000020001002DE9F84304460068F1
:101A60000D46DDE9089701689846164641F48071F5
:101A700001604B4600224FF001112046009700F014
:101A80006BF848B120680068C00502D54FF40070BB
:101A900020640320BDE8F883216805F0FE0008619A
:101AA0003B464A461549204600F09EF888B9206812
:101AB0004169806900903A464946204600F02AF97B
:101AC00048B1206C042804D12068016841F40071F9
:101AD00001600120DEE7F5B2B8F1010F09D02168FD
:101AE000300A08613A464946204600F013F90028BA
:101AF000E7D1206805610020CCE70000020001006A
:101B000070B516460D4604461EE02046FFF70FFF4F
:101B100008B1012070BD681C16D0FFF75DF8801B6E
:101B2000A84200D885B920684069C04340070BD55A
:101B3000002044F8300F20216173A073216941F027
:101B4000200121612073E4E720684069C043400719
:101B5000DBD4002070BD00002DE9F0479846174601
:101B60000D460446C1F30746DDF820902AE000BF89
:101B7000B8F1FF3F26D0FFF72FF8A0EB0901414550
:101B800002D8B8F1000F1DD12068012E16D080694F
:101B900025EA00000004000C12D00020B84211D148
:101BA000002044F8300F20216173A073216941F0B7
:101BB0002001216120730120BDE8F0874069E7E73B
:101BC0000120EBE72068012E0AD0806925EA000099
:101BD0000004000C06D00020B842C9D00020EBE77A
:101BE0004069F3E70120F7E72DE9F04798461646EC
:101BF0000D4604464FF000094FF0200AC1F3074795
:101C000023E020684069C043400515D4206801687E
:101C100041F40071016021686FF480604861C4F88C
:101C2000309084F83DA084F83E90216C41F004018E
:101C3000216484F83C9021E0701C06D0FEF7CCFFB4
:101C4000A0EB0800B04203D816B1012F1FD021E04D
:101C50002068012F15D0806925EA00000004000CDF
:101C600018D000BF44F8309F84F80DA084F80E907F
:101C7000216941F02001216184F80C900120BDE828
:101C8000F087406925EA00000004000CEAD12068D2
:101C9000406901E02068806925EA00000004000C2A
:101CA000AFD1ECE72DE9F041002590460E46044601
:101CB000202728E04069C043C0060CD454F8301BEC
:101CC0006FF01000486144F810596777A577206AD3
:101CD0002062257714E0FEF77FFFA0EB0800B042FA
:101CE00000D886B920684069C04340060BD544F847
:101CF000305F6773A573206940F020002061257371
:101D00000120BDE8F08120684169C9434906D1D46A
:101D10000020F6E770B516460D4604461EE0204644
:101D2000FFF705FE08B1012070BD681C16D0FEF754
:101D300053FF801BA84200D885B920684069C04382
:101D400000060BD5002044F8300F20216173A073EA
:101D5000216941F0200121612073E4E72068406996
:101D6000C0430006DBD4002070BD00F041F8FEF750
:101D7000BFFD00F07DFAFAE70148406870470000B7
:101D8000000000200148806870470000000000202B
:101D90000148C06870470000000000200148406909
:101DA0007047000000000020014880697047000073
:101DB000000000200148C0697047000000000020BA
:101DC0000148406A70470000000000200148806A16
:101DD00070470000000000200148006970470000C3
:101DE000000000200148006A704700000000002049
:101DF0002DE9FF4180208DF80C00012503AE6424FD
:101E00000096CDE901542B466B22D0211548FFF7EF
:101E1000DBF86420FEF7DEFD00278DF80C700096DD
:101E2000CDE9015401236B22D0210E48FFF7CCF8F5
:101E300018208DF80C000096CDE9015401231B22D7
:101E4000D0210848FFF7C0F88DF80C700096CDE956
:101E5000015401231C22D0210248FFF7B5F8BDE848
:101E6000FF810000440000201FB56423012203A964
:101E70008DE80E0013460246D0210348FEF776FF98
:101E80009DF80C0004B010BD440000202DE9F05F67
:101E90003C20FFF7E9FF04463B20FFF7E5FF44EA5B
:101EA00000200FFA80F93E20FFF7DEFF04463D20B8
:101EB000FFF7DAFF44EA002007B24020FFF7D4FF23
:101EC00004463F20FFF7D0FF44EA00200FFA80FBD2
:101ED0004220FFF7C9FF04464120FFF7C5FF44EA4F
:101EE00000200FFA80FA4420FFF7BEFF044643208B
:101EF000FFF7BAFF44EA00200FFA80F84620FFF708
:101F0000B3FF04464520FFF7AFFF44EA002006B2C6
:101F10004820FFF7A9FF04464720FFF7A5FF44EA42
:101F2000002005B24846FEF7E7F9DFF86C90494615
:101F3000FEF772F9194C60603846FEF7DDF9494644
:101F4000FEF76AF9A0605846FEF7D6F94946FEF753
:101F500063F9E0605046FEF7CFF91149FEF78EF9BC
:101F60001049FEF701F920614046FEF7C5F90E4F12
:101F70003946FEF751F960613046FEF7BDF9394642
:101F8000FEF74AF9A0612846FEF7B6F93946FEF792
:101F900043F9E061BDE8F09FD5FF7F3800000020E5
:101FA0000000AA43B81E1242D6FF793D0D4808B57D
:101FB000816941F020018161816901F02001009176
:101FC000816941F004018161816901F0040100919E
:101FD000816941F008018161806900F0080000908A
:101FE00008BD0000001002400D4810B50B4901600B
:101FF0000C49416000214FF480428160C0E9031226
:1020000041618161C1610162FEF7ECFD002803D0EE
:10201000BDE81040FEF7DCBC10BD000000540040DD
:1020200044000020A08601000C4810B50A49016058
:102030004FF4E1314160002181600C22C160C0E9B0
:1020400004128161C161FFF799FB002803D0BDE84C
:102050001040FEF7BDBC10BD0038014098000020C4
:102060000C4810B50A4901604FF4E131416000218C
:1020700081600C22C160C0E904128161C161FFF777
:102080007DFB002803D0BDE81040FEF7A1BC10BDC9
:1020900000440040E0000020FEE7FEE77047704784
:1020A000FFF762B810B590B028216846FEF751F8E6
:1020B00014210AA8FEF74DF8022000900120049098
:1020C00010200024059007946846FFF7B3F908B183
:1020D00072B6FEE70F20CDE90A040C940D9400219E
:1020E0000AA80E94FFF7CAF8002801D072B6FEE7DE
:1020F00010B010BD704701680C3151E8002F22F478
:10210000907241E80023002BF5D10168143151E8A9
:10211000002F22F0010241E80023002BF5D1016BD2
:10212000012909D101680C3151E8002F22F0100279
:1021300041E80023002BF5D1202180F84210002136
:102140000163704770B5044600680169E26821F4D4
:102150004051114301612169A06808436169084346
:102160002168CA6841F20C639A430243CA6020683E
:102170004169A26921F44071114341611E492068FF
:10218000884202D1FFF720F901E0FFF70DF900EBDB
:10219000C00101EB0012606864218000B2FBF0F323
:1021A000B3FBF1F36FF018067343B2FBF0F5B2FB2B
:1021B000F0F605EB8305322303EB0515B5FBF1F5CE
:1021C000B6FBF1F605F0F00505EB0615B2FBF0F6EF
:1021D000B2FBF0F0B0FBF1F06FF01802504306EBE9
:1021E000800003EB0010B0FBF1F0216800F00F005D
:1021F0002844886070BD0000003801402DE9F84394
:10220000984617460D460446089E24E0701C22D0CE
:10221000FEF7E2FCA0EB0800B0421AD8CEB120686D
:10222000C168490717D5802D15D0402D13D00168FE
:10223000C94309070FD40168002540680090204673
:10224000FFF759FF0820606484F840500120BDE882
:10225000F8830320FBE72068006835EA000004D01B
:102260000020B842D2D00020F1E70120F9E70000B9
:102270002DE9F04F95B0FEF7AFFC2F4A1168884268
:1022800056D30A311160FFF777FD1290FFF77AFD00
:102290000090FFF77DFD0190FFF79EFD0290FFF794
:1022A0007DFD0390FFF780FD0490FFF783FD05900F
:1022B000FFF798FD0446FFF783FD0546FFF786FD0F
:1022C000FEF728F882468B462846FEF723F880461C
:1022D00089462046FEF71EF806460F460598FEF78B
:1022E00019F804460D460498FEF714F8CDE90801E4
:1022F0000398FEF70FF8CDE906010298FEF70AF8F9
:10230000CDE904010198FEF705F8CDE90201009836
:10231000FEF700F8CDE900011298FDF7FBFF0DF183
:10232000280C02468CE8F00F0B4604A000F018F8C9
:1023300015B0BDE8F08F00002C00002025662C258C
:10234000662C25662C25662C25662C25662C256694
:102350002C25662C25662C25660A0000FEE7000069
:102360000FB4054B10B503A9044A029800F0EAF82F
:1023700010BC5DF814FB0000F52C000840000020A4
:102380000907090E002804DB00F1E02080F80014A2
:10239000704700F00F0000F1E02080F8141D704736
:1023A00002E008C8121F08C1002AFAD1704770471E
:1023B000002001E001C1121F002AFBD1704700007C
:1023C0002DE9FF5F82B00021DDE90430020DDDF868
:1023D00040B0034318D044F61050A2F2FF324243FB
:1023E0001514119801281FD0A5EB0B00401C5FEAC3
:1023F000000A4FF000064E4FDFF83891B0465046C5
:1024000015D5CAF1000413E0119801244AA301284C
:1024100001D16FEA0B010298119AC0E90031C0E9BD
:10242000024206B0BDE8F09FCBF10000DFE70446B2
:102430000021404A491842EB0450CDE9001012E057
:10244000E00707D032463B4640464946FEF7AFF824
:102450008046894632463B4610461946FEF7A7F8A5
:1024600006460F466410002CEAD1DDE90401DDE9DF
:102470000023BAF1000F06DAFEF799F842464B4600
:10248000FEF795F805E0FEF704F942464B46FEF7E5
:1024900000F904460E460022284BFEF781F903D8C6
:1024A0004FF0FF30014607E00022254B2046314621
:1024B000FDF7D6FFFEF75CF9102409E0002C0ADBDB
:1024C0000A220023FDF764FF039B30321A55641E75
:1024D00050EA0102F2D1641C039AC4F111031444BE
:1024E000119A012A03D0012208430DD10AE00843C2
:1024F00004D000204FF0110B119072E7A3EB0B05F5
:102500006D1E0DE05B4504DD4FF0000205F1010595
:1025100004E003DA4FF00002A5F10105002AECD037
:1025200002981199C0E90231C0E9004579E700003D
:10253000000014400000F03F300000000000F043B5
:102540000000E03F2DE9FF4F95B09B4689460646C7
:1025500000250FE2252877D100242746F84A0121DB
:10256000059400E0044316F8013F203B01FA03F014
:102570001042F7D130782A2811D06FF02F0330782D
:10258000A0F13002092A16D8059A44F0020402EBA1
:10259000820203EB42021044761C0590EFE759F8E3
:1025A000042B0592002A03DA504244F400540590AB
:1025B00044F00204761C30782E2816D116F8010F4C
:1025C00044F004042A280DD06FF02F023078A0F1D7
:1025D0003003092B09D807EB870302EB4303C71825
:1025E000761CF3E759F8047B761C30786C280FD002
:1025F00006DC4C2817D068280DD06A2814D104E0D6
:10260000742810D07A280FD10DE044F400140AE0A9
:1026100044F4801401E044F440147278824202D100
:1026200004F58014761C761C307866280BD013DCF9
:10263000582877D009DC002875D04528F6D04628E0
:10264000F4D047281AD19DE118E0632835D06428DA
:1026500079D0652812D195E1702873D008DC6728FD
:10266000F1D069286FD06E280DD06F2806D1B5E063
:1026700073282CD0752875D0782874D05A461799AD
:1026800090476D1C75E1C4F30250022809D003285D
:102690000DD0D9F8001004280DD00D6009F10409FF
:1026A00067E1D9F80010EA17C1E90052F6E7D9F856
:1026B00000100D80F2E70D70F0E719F8041B8DF89B
:1026C000001000208DF80100EA46012003E059F8CF
:1026D00004AB4FF0FF3061074FF0000102D40DE072
:1026E00008F101018846B9420FDA8045F8DB1AF893
:1026F00008100029F4D108E008F101018846814260
:10270000FADB1AF808100029F6D105985B46A0EB11
:10271000080721463846179A00F094FA284400EB3F
:10272000080507E04DE029E10DE01AF8010B5A46D3
:1027300017999047B8F10108F7D25B462146384611
:10274000179A13E142E00A220092C4F302524FF0BA
:10275000000A022A08D059F804CB032A4FEAEC7188
:102760000AD00DE029E02AE009F1070121F0070273
:10277000F2E802C1914609E00FFA8CFC4FEAEC71D5
:10278000042A03D14FFA8CFC4FEAEC71002907DAD6
:102790000A460021DCF1000C61EB02012D2202E06F
:1027A000220504D52B228DF80420012203E0E20744
:1027B00001D02022F7E7904659E00A2102E01022DA
:1027C0000DE010214FF0000A00910BE010224FF0B5
:1027D000000A44F004040827009203E008224FF0A6
:1027E000000A0092C4F30252022A05D059F804CB21
:1027F0000021032A08D009E009F1070121F00702AE
:10280000F2E802C1914605E01FFA8CFC042A01D1CE
:102810000CF0FF0C4FF00008220728D5702806D0D6
:10282000009B83F0100353EA0A0305D00EE0402218
:102830008DF80420012208E05CEA010206D0302273
:102840008DF804208DF8050002229046009B83F04D
:10285000080353EA0A030AD15CEA010201D16207C4
:1028600005D530228DF804204FF001087F1E58282E
:1028700004D034A003900EA802900DE036A0F9E732
:1028800053466046009AFDF783FD84460398825CB8
:102890000298401E029002705CEA0100F0D102989A
:1028A00006A9081A00F1200A600702D524F4803432
:1028B00000E00127574502DDA7EB0A0000E00020F9
:1028C00000EB0A01009005984144401A0590E0038E
:1028D00006D45B462146179A059800F0B3F90544E3
:1028E000002706E001A85A46C05D179990476D1C65
:1028F0007F1C4745F6DBE0030CD55B462146179A63
:10290000059800F09FF9054404E030205A461799D5
:1029100090476D1C0099481E00900029F5DC08E0E6
:10292000029802995A460078491C029117999047DB
:102930006D1CBAF10001AAF1010AF1DC65E10000A9
:102940000928010030313233343536373839616285
:102950006364656600000000303132333435363749
:1029600038394142434445460000000000F058F920
:102970000544761C307800287FF4ECAD19B0284669
:10298000BDE8F08F620700D4062709F1070222F0A4
:10299000070CFCE80223E14603F000485FEA080C5C
:1029A00002D00FF2702C0DE05FEA045C02D50FF24A
:1029B000682C07E05FEAC47C02D00FF2602C01E0D3
:1029C000AFF2700C4FF0FF3823F00043CDF850C049
:1029D00065280CD006DC452809D046281DD047289C
:1029E0003DD13DE0662818D067287ED138E000212F
:1029F000112F01DB112000E0781CCDE9000106A9B0
:102A00000EA8FFF7DDFCDDE90F010E9A039100210E
:102A1000009207F1010A04914DE04FF00040009749
:102A2000CDE9011006A90EA8FFF7CAFCDDE90F02E7
:102A300003920E9B11990022DDF80CA000930492E2
:102A400011B9791C00EB010AB7EB0A0004D4C0F1FC
:102A5000FF3007F1010A0490AAEB0700019044E05F
:102A6000012F00DA01270021112F01DD112000E0E4
:102A70003846CDE9000106A90EA8FFF7A1FCDDE963
:102A80000F010E9A0391002104910092BA4621078A
:102A90000CD40399514500DA8A46BAF1010F05DDDD
:102AA000009AAAF10101515C302908D0B84202DA3B
:102AB00010F1040F06DA0121CDE9011015E0AAF1A9
:102AC0000101E9E7002805DC049901440491AAEB1F
:102AD000000102E0411C514500DD8A460499401A7C
:102AE000401C01904FF000400290200704D4019850
:102AF000504501DBCDF8048000208DF84F0002988E
:102B00000DF14F07B0F1004F25D02B200E90029809
:102B10004FF0020800280CDA404202902D200E905F
:102B200007E00A210298FDF71DFC3031029007F8FA
:102B3000011DB8F10001A8F10108F2DC029800289B
:102B4000EFD1791E0E980870307800F0200040F028
:102B5000450007F8020D12A8C01B00F107081498E1
:102B6000007800B1012000EB0A01019801EBE0714F
:102B700005984144401A401E0590E00306D45B4688
:102B80002146179A059800F05DF8054414980078DE
:102B900018B15A46179990476D1CE00324D55B463F
:102BA0002146179A059800F04DF805441CE004985A
:102BB000002807DBDDE90301884203DD0098405C63
:102BC000179901E0179930205A469047049805F16B
:102BD0000105401C04900198401E019004D12E2054
:102BE0005A46179990476D1CBAF10001AAF1010AE3
:102BF000DDDC05E017F8010B5A46179990476D1C6C
:102C0000B8F10001A8F10108F4DC5B462146179AEF
:102C10000598ABE62D0000002B000000200000000E
:102C20002DE9F041044600251E461746880404D4C9
:102C300005E039462020B0476D1C641EF9D52846B2
:102C4000BDE8F0812DE9F041044600251E4690467E
:102C5000C80301D5302700E02027880404D505E00B
:102C600041463846B0476D1C641EF9D52846BDE87C
:102C7000F0812DE9F041491E8CB20646016890466C
:102C800000251046FDF75AFB02D80020BDE8F08170
:102C900056F824104046FDF75BFB0FD82046BDE8F0
:102CA000F041FDF732BB28194708414656F8270086
:102CB000FDF74EFB01D23C4600E03D46601E8542DA
:102CC000F1DB56F8257056F824003946FDF79EFAD8
:102CD000044639464046FDF799FA2146FDF7CEFAFB
:102CE00004462846FDF711FB2146BDE8F041FDF7FB
:102CF0003BBA000013B54FF0FF330122694602488A
:102D0000FEF7C4FD00981CBDE0000020FEF734FA79
:102D1000FFF7C8F9FFF74AF9FFF766F9FFF784F9FB
:102D2000FFF79EF9FFF721F8FEE700000D4910B507
:102D3000884201D30C4C01E04FF07E54884201D30D
:102D400080F0004002464FF480610848FFF791FF91
:102D500001462046FDF760FABDE810400449FDF742
:102D60005BBA000000008080000080BFC43D000806
:102D7000DB0FC93A70B50F4E05460C4611F0FF4FF8
:102D80000DD02846FDF77AFAFFF7D0FFB44209D3F9
:102D90000949B54209D2BDE87040FDF7E5B9B54231
:102DA00001D2064870BD064870BDBDE87040FDF711
:102DB0002DBA000000008080DB0F4940DB0FC93FC7
:102DC000DB0FC9BF000000008010C93A8010493BEA
:102DD00060CC963B8010C93BA054FB3B60CC163CBA
:102DE00070EE2F3C8010493C5E2E623C6E507B3C66
:102DF0003F398A3C47CA963C3659A33C3EEAAF3C31
:102E0000467BBC3C350AC93C3D9BD53C2C2AE23C68
:102E100034BBEE3C234AFB3C89EC033D01340A3DC4
:102E2000787B103DF0C2163D670A1D3DDF51233D02
:102E30005699293DC2DF2F3D3927363DA46D3C3DD3
:102E40000FB4423D87FB483DF2414F3D5D88553D03
:102E5000C8CE5B3D2714623D925A683DF19F6E3D9E
:102E60005CE6743DBB2B7B3D8DB8803D3CDB833DF8
:102E700065FD863D14208A3D3E428D3DED64903DCA
:102E80001687933D3FA9963DE2CA993D0BED9C3DC7
:102E9000AE0EA03D5130A33DF451A63D9773A93D20
:102EA0003A95AC3D56B6AF3DF9D7B23D16F9B53DB2
:102EB000AC19B93DC93ABC3D605BBF3DF67BC23D34
:102EC0008D9CC53D23BDC83DBADDCB3DCAFDCE3D81
:102ED000DA1DD23DEA3DD53D745DD83DFE7CDB3D3B
:102EE000889CDE3D12BCE13D9CDBE43DA0FAE73D61
:102EF000A419EB3DA838EE3D2657F13DA375F43DEE
:102F00002194F73D9EB2FA3D96D0FD3D4777003EB5
:102F10004206023EFB94033EB323053E6CB2063EDE
:102F20002541083E9ACF093E0F5E0B3E42EC0C3E17
:102F3000747A0E3EA708103ED996113EC824133E5F
:102F4000B7B2143E6440163E53CE173EFF5B193EA7
:102F500068E91A3ED1761C3E3A041E3E60911F3E3F
:102F6000861E213EACAB223E8F38243E72C5253EE4
:102F70005452273EF4DE283E946B2A3EF0F72B3E57
:102F80004D842D3EAA102F3EC39C303EDD28323E9C
:102F9000B3B4333E8940353E60CC363EF357383EBD
:102FA00086E3393ED66E3B3E27FA3C3E34853E3EB4
:102FB0004110403E4E9B413E1826433E9FB0443E4A
:102FC000693B463EACC5473E3350493E34DA4A3E43
:102FD00077644C3E78EE4D3E36784F3EF301513EDD
:102FE0006E8B523EE814543E629E553E9A27573EE1
:102FF0008EB0583E82395A3E76C25B3E274B5D3ECC
:1030000095D35E3E035C603E71E4613E9C6C633E22
:1030100084F4643E6C7C663E1004683EB58B693E69
:1030200016136B3E789A6C3E96216E3EB5A86F3EA5
:10303000902F713E6BB6723E043D743E59C3753E8F
:10304000AE49773EC0CF783ED2557A3EA1DB7B3E7B
:1030500070617D3EFBE67E3E2236803EC6F8803EB5
:1030600049BB813ECC7D823E2D40833E6D02843E35
:10307000ACC4843ECB86853EE948863EE50A873E61
:10308000C0CC873E9B8E883E5550893EED118A3ECE
:1030900084D38A3EFB948B3E71568C3EC6178D3E80
:1030A000F9D88D3E2C9A8E3E3E5B8F3E2E1C903E74
:1030B0001EDD903EED9D913E9A5E923E251F933E11
:1030C000B1DF933E3CA0943E8560953ECD20963E78
:1030D000F4E0963E1BA1973E2061983E0421993E64
:1030E000C6E0993E88A09A3E28609B3EA71F9C3E62
:1030F00026DF9C3E849E9D3EC05D9E3EDA1C9F3E28
:10310000F5DB9F3EED9AA03EC559A13E7A18A23E3E
:1031100030D7A23EC495A33E3754A43EA912A53E83
:10312000D9D0A53E088FA63E164DA73E240BA83E3B
:10313000EFC8A83EBA86A93E6344AA3E0C02AB3E45
:1031400072BFAB3ED97CAC3E1D3AAD3E40F7AD3EC2
:1031500042B4AE3E4371AF3E022EB03EC0EAB03E36
:103160005DA7B13EFA63B23E5320B33EADDCB33E41
:10317000E598B43EFC54B53EF110B63EC4CCB63E24
:103180007688B73E2844B83EB9FFB83E28BBB93E62
:103190007576BA3EA131BB3EABECBB3EB5A7BC3E9B
:1031A0007C62BD3E431DBE3EE9D7BE3E6C92BF3E33
:1031B000CF4CC03E1007C13E51C1C13E4E7BC23E06
:1031C0004C35C33E07EFC33EC1A8C43E5A62C53E5C
:1031D000D21BC63E28D5C63E5C8EC73E6F47C83E52
:1031E0008200C93E52B9C93E0072CA3EAE2ACB3EE9
:1031F0003BE3CB3E849BCC3ECE53CD3EF60BCE3E46
:10320000DBC3CE3EC07BCF3E8333D03E25EBD03EEA
:10321000A5A2D13E045AD23E4111D33E5CC8D33E52
:10322000567FD43E5036D53E07EDD53E9CA3D63EC4
:10323000105AD73E6210D83E93C6D83EC47CD93EC1
:10324000B132DA3E7DE8DA3E289EDB3EB153DC3E09
:103250003909DD3E7FBEDD3EA373DE3EA628DF3E9C
:1032600087DDDF3E4792E03EE546E13E61FBE13E21
:10327000BCAFE23EF563E33E0D18E43E03CCE43E12
:10328000D87FE53E6A33E63EFBE6E63E6B9AE73ED4
:10329000984DE83EC500E93EAFB3E93E7766EA3EA9
:1032A0003F19EB3EC5CBEB3E287EEC3E6A30ED3E4F
:1032B0008BE2ED3E6894EE3E4546EF3E01F8EF3E70
:1032C0007AA9F03EF35AF13E280CF23E3CBDF23EA4
:1032D0002F6EF33E001FF43EAFCFF43E3D80F53E2F
:1032E0008830F63ED2E0F63EDA90F73EC040F83E37
:1032F00084F0F83E27A0F93EA94FFA3EE7FEFA3ED9
:1033000025AEFB3E205DFC3EFA0BFD3EB2BAFD3E13
:103310004969FE3EBE17FF3EEFC5FF3E003A003F43
:10332000F790003FDEE7003FB43E013F7995013F53
:103330001CEC013FAF42023F3199023FA2EF023F36
:10334000F145033F419C033F6FF2033F8C48043F2C
:10335000999E043F84F4043F5E4A053F27A0053F41
:10336000E0F5053F884B063F0EA1063F83F6063F7A
:10337000E84B073F3CA1073F6FF6073F904B083FE4
:10338000A1A0083FA1F5083F804A093F4D9F093F92
:103390000AF4093FA6480A3F419D0A3FBBF10A3F94
:1033A00024460B3F6B9A0B3FA2EE0B3FC8420C3FEB
:1033B000DD960C3FD1EA0C3FB43E0D3F86920D3FA7
:1033C00036E60D3FD6390E3F658D0E3FE3E00E3FEA
:1033D00040340F3F8B870F3FB6DA0F3FCF2D103FA2
:1033E000D880103FD0D3103FA626113F6C79113FF3
:1033F00021CC113FB41E123F3771123F98C3123FC8
:10340000E815133F2768133F56BA133F630C143F68
:103410005F5E143F3AB0143F0402153FBD53153FA1
:1034200055A5153FDCF6153F4148163FA699163FB6
:10343000D9EA163F0C3C173F1E8D173F0DDE173F94
:10344000EC2E183FBB7F183F78D0183F1421193F4E
:103450008F71193FF8C1193F51121A3F99621A3FF3
:10346000C0B21A3FC5021B3FB9521B3F9CA21B3F73
:103470005EF21B3F0F421C3F9F911C3F1EE11C3F11
:103480008C301D3FD87F1D3F03CF1D3F1D1E1E3FAB
:10349000266D1E3F0EBC1E3FE50A1F3F9B591F3F76
:1034A0003FA81F3FC2F61F3F3545203F9693203F60
:1034B000D6E1203FF52F213F027E213FFFCB213F68
:1034C000DB19223F9467223F3DB5223FD602233FBE
:1034D0004C50233FA19D233FE6EA233F1938243F68
:1034E0002B85243F2DD2243F0C1F253FCA6B253F3F
:1034F00078B8253F0305263F7E51263FE99D263FAC
:1035000031EA263F5936273F6F82273F64CE273F57
:10351000481A283F0A66283FABB1283F3BFD283FA9
:10352000BB48293F1894293F55DF293F802A2A3F6D
:103530008A752A3F83C02A3F5B0B2B3F21562B3FC6
:10354000C7A02B3F4AEB2B3FBD352C3F0F802C3FB4
:103550004FCA2C3F6E142D3F6C5E2D3F58A82D3F57
:1035600024F22D3FDE3B2E3F77852E3FFFCE2E3FB0
:1035700055182F3FAA612F3FCEAA2F3FE0F32F3FD0
:10358000E23C303FC285303F81CE303F1E17313F95
:10359000AB5F313F15A8313F6FF0313FA838323F64
:1035A000D080323FC5C8323FAA10333F7D58333FE9
:1035B00030A0333FC0E7333F302F343F8E76343F67
:1035C000CBBD343FF704353F014C353FEA92353FE0
:1035D000B2D9353F6820363FFD66363F82AD363F73
:1035E000E4F3363F263A373F4580373F54C6373FEE
:1035F000410C383F1E52383FC897383F61DD383F95
:10360000D922393F4068393F86AD393FAAF2393F68
:10361000BD373A3F9E7C3A3F6EC13A3F2D063B3F55
:10362000BA4A3B3F368F3B3F91D33B3FDB173C3F92
:10363000035C3C3F0AA03C3FEFE33C3FB3273D3FE8
:10364000666B3D3FF7AE3D3F67F23D3FC6353E3FBF
:1036500003793E3F1FBC3E3F19FF3E3F03423F3FC1
:10366000BA843F3F60C73F3FF609403F594C403F57
:10367000AC8E403FDDD0403FEC12413FDA54413F39
:10368000B796413F73D8413F0D1A423F855B423F99
:10369000ED9C423F22DE423F471F433F4A60433F8B
:1036A0003CA1433FFCE1433FAB22443F3963443FED
:1036B000A5A3443FEFE3443F2924453F4164453FF0
:1036C00027A4453FFCE3453FC023463F5263463FA6
:1036D000D3A2463F22E2463F6021473F8D60473FED
:1036E000889F473F61DE473F2A1D483FD15B483FE7
:1036F000569A483FBAD8483FFD16493F1D55493FA5
:103700002D93493F0BD1493FD80E4A3F834C4A3F46
:103710000D8A4A3F86C74A3FCD044B3FF2414B3F9B
:10372000067F4B3FF9BB4B3FCBF84B3F7A354C3FC5
:1037300008724C3F75AE4C3FD1EA4C3FFA264D3FE4
:1037400013634D3F0A9F4D3FCFDA4D3F83164E3FE7
:1037500015524E3F978D4E3FE7C84E3F14044F3FE2
:10376000313F4F3F1C7A4F3FF6B44F3FAEEF4F3FD4
:10377000352A503FAA64503FFE9E503F30D9503FFB
:103780005113513F404D513F0E87513FCAC0513FE9
:1037900055FA513FCE33523F166D523F4CA6523F21
:1037A00061DF523F4418533F1651533FC689533F80
:1037B00055C2533FC2FA533F0D33543F386B543F09
:1037C00040A3543F38DB543FFD12553FA14A553FBB
:1037D0003482553F95B9553FD4F0553F0228563FA6
:1037E000FF5E563FEA95563FA3CC563F4B03573FEB
:1037F000C139573F2670573F6AA6573F7BDC573F7A
:103800007B12583F5A48583F077E583FA2B3583F53
:103810001DE9583F641E593F9C53593FB188593F99
:1038200094BD593F67F2593F18275A3FA75B5A3F4B
:1038300004905A3F50C45A3F7BF85A3F732C5B3F69
:103840005B605B3F21945B3FB4C75B3F37FB5B3FF3
:10385000882E5C3FC8615C3FD5945C3FD2C75C3F1B
:103860009CFA5C3F562D5D3FDD5F5D3F53925D3FAF
:1038700097C45D3FBAF65D3FBB285E3FAB5A5E3FE3
:10388000698C5E3F06BE5E3F80EF5E3FDA205F3FA1
:1038900011525F3F27835F3F1CB45F3FEFE45F3F00
:1038A0009015603F2046603F8E76603FCAA6603F1D
:1038B000F5D6603FEE06613FD636613F8C66613FCC
:1038C0002096613F93C5613FE4F4613F1424623F59
:1038D0002253623F0E82623FD9B0623F83DF623F74
:1038E000FA0D633F603C633F946A633FA698633F71
:1038F000A8C6633F77F4633F2522643FB14F643F1E
:103900001C7D643F54AA643F7BD7643F7104653FCC
:103910005531653F075E653F988A653F17B7653F3C
:1039200065E3653F800F663F8A3B663F7367663F8E
:103930002993663FCFBE663F42EA663F9415673FD4
:10394000C440673FD36B673FC096673F8BC1673FFB
:1039500025EC673FAD16683F0341683F386B683F11
:103960004A95683F3CBF683F0CE9683FA912693F30
:10397000363C693F9065693FC98E693FE1B7693F51
:10398000D6E0693FAB096A3F4D326A3FDE5A6A3F73
:103990003C836A3F7AAB6A3F95D36A3F8FFB6A3FAD
:1039A00057236B3F0E4B6B3F93726B3FF6996B3F08
:1039B00037C16B3F57E86B3F560F6C3F22366C3F69
:1039C000CD5C6C3F66836C3FBDA96C3F03D06C3F00
:1039D00027F66C3F191C6D3FEA416D3FA9676D3FAB
:1039E000268D6D3F92B26D3FDCD76D3FF4FC6D3F8D
:1039F000EA216E3FBF466E3F726B6E3FF38F6E3FA4
:103A000063B46E3FA1D86E3FBDFC6E3FB8206F3FE0
:103A100080446F3F38686F3FBD8B6F3F21AF6F3F72
:103A200052D26F3F73F56F3F6118703F3F3B703F5D
:103A3000D95D703F6380703FCBA2703F00C5703F7F
:103A400014E7703F0709713FD82A713F774C713FE7
:103A5000F46D713F508F713F8AB0713FA2D1713FB9
:103A600088F2713F4D13723FF033723F7154723FD1
:103A7000C174723FFF94723F0BB5723FE5D4723F41
:103A8000AEF4723F4414733FB933733F0D53733F29
:103A90003F72733F3F91733F1DB0733FD9CE733F69
:103AA00074ED733FDD0B743F242A743F4948743F23
:103AB0004D66743F1F84743FCFA1743F5DBF743F58
:103AC000CADC743F05FA743F2F17753F1634753FF3
:103AD000EC50753F8F6D753F228A753F83A6753F09
:103AE000B1C2753FCEDE753FB9FA753F7216763FAB
:103AF0001A32763F904D763FE468763F1684763FE3
:103B0000279F763F06BA763FC3D4763F5FEF763F76
:103B1000C809773F1024773F363E773F3A58773FC2
:103B20000D72773FBD8B773F4CA5773FBABE773F8D
:103B3000F5D7773F0FF1773F070A783FCD22783FDF
:103B4000713B783FF453783F556C783F8484783FDD
:103B5000919C783F7CB4783F36CC783FCEE3783F79
:103B600044FB783F9912793FBB29793FBC40793FAC
:103B70009B57793F486E793FE484793F3D9B793F7D
:103B800085B1793F9BC7793F90DD793F62F3793FFB
:103B900003097A3F821E7A3FDF337A3F0A497A3F30
:103BA000245E7A3FFC727A3FC2877A3F569C7A3F06
:103BB000C9B07A3F19C57A3F38D97A3F35ED7A3F97
:103BC00011017B3FBA147B3F41287B3FA73B7B3FE2
:103BD000EC4E7B3FFE617B3FEF747B3FAD877B3FCD
:103BE0005B9A7B3FC5AC7B3F1FBF7B3F46D17B3F92
:103BF0004CE37B3F30F57B3FE2067C3F83187C3F04
:103C0000E1297C3F2E3B7C3F494C7C3F425D7C3F21
:103C1000096E7C3FAE7E7C3F328F7C3F849F7C3F31
:103C2000C4AF7C3FC2BF7C3FAFCF7C3F6ADF7C3FED
:103C300003EF7C3F7AFE7C3FBF0D7D3FE31C7D3F61
:103C4000D42B7D3FB43A7D3F52497D3FDE577D3FC7
:103C500038667D3F71747D3F88827D3F6D907D3FEA
:103C6000309E7D3FD2AB7D3F41B97D3F8FC67D3FCA
:103C7000AAD37D3FB5E07D3F8DED7D3F33FA7D3F9B
:103C8000C8067E3F2B137E3F5C1F7E3F6B2B7E3F23
:103C900058377E3F24437E3FBE4E7E3F365A7E3F9E
:103CA0008C657E3FB0707E3FB37B7E3F83867E3FD8
:103CB00043917E3FD09B7E3F2BA67E3F64B07E3FEC
:103CC0007CBA7E3F72C47E3F36CE7E3FD8D77E3FE1
:103CD00048E17E3F96EA7E3FC3F37E3FCEFC7E3FC7
:103CE000A7057F3F5E0E7F3FE3167F3F471F7F3F65
:103CF00089277F3F982F7F3F86377F3F533F7F3F06
:103D0000ED467F3F664E7F3FBD557F3FE25C7F3F84
:103D1000E5637F3FC66A7F3F76717F3F03787F3FD1
:103D20006F7E7F3FA9847F3FC28A7F3FB8907F3FED
:103D30007D967F3F209C7F3F90A17F3FDFA67F3F06
:103D40000CAC7F3F07B17F3FF2B57F3F99BA7F3F11
:103D50002FBF7F3F93C37F3FC5C77F3FE6CB7F3FEA
:103D6000D5CF7F3F91D37F3F3DD77F3FB6DA7F3FAF
:103D7000FDDD7F3F22E17F3F26E47F3F08E77F3F75
:103D8000B8E97F3F46EC7F3FA2EE7F3FDCF07F3F0C
:103D9000F5F27F3FEDF47F3FB2F67F3F44F87F3F7F
:103DA000C6F97F3F16FB7F3F33FC7F3F3FFD7F3FE0
:103DB00019FE7F3FC1FE7F3F47FF7F3FACFF7F3F44
:103DC000EFFF7F3F000000008010C93A8010493BA0
:103DD00060CC963B8010C93BA054FB3B60CC163CAA
:103DE00070EE2F3C8010493CC136623CD1587B3C80
:103DF000713D8A3C91D0963C9961A33CBAF4AF3CAA
:103E0000DB87BC3CFC1AC93C1DAED53C3E41E23CC4
:103E10005FD4EE3C7F67FB3C5DFE033DED470A3D12
:103E20008A92103D27DD163DC4271D3D6D73233D4D
:103E30000ABE293DB309303D5C55363D06A13C3DE7
:103E4000AFEC423D6539493D1A864F3DD0D2553DD4
:103E5000861F5C3D486D623DFEB9683DC0076F3D01
:103E60008F56753D51A47B3D90F9803DF720843DF0
:103E7000E448873DD2708A3DBF988D3DADC0903DEE
:103E800021E9933D9411973D8E3A9A3D88639D3D7B
:103E9000828CA03D03B6A33D83DFA63D0309AA3D66
:103EA0000933AD3D105DB03D1687B33DA3B1B63DBE
:103EB000B5DCB93DC807BD3DDB32C03D745EC33DD6
:103EC0000D8AC63DA6B5C93DC6E1CC3D6B0ED03DC1
:103ED000103BD33D3C68D63D6895D93D94C2DC3D4E
:103EE00045F0DF3D7E1EE33DB64CE63D747BE93D8B
:103EF00032AAEC3D77D9EF3DBC08F33D8638F63D5C
:103F00005168F93DA298FC3D79C9FF3D287D013EED
:103F1000D715033E86AE043E7847063EACE0073E2A
:103F2000E179093E59130B3E15AD0C3ED0460E3ECD
:103F3000CEE00F3E0F7B113E5115133ED5AF143E20
:103F40009D4A163E64E5173E6F80193EBD1B1B3E21
:103F50000BB71C3EDF521E3EB3EE1F3ECA8A213E07
:103F6000E126233E3BC3243ED95F263EB9FC273ED3
:103F7000DD99293E00372B3EAAD42C3E54722E3EAA
:103F80004110303E2EAE313EA14C333E14EB343E58
:103F90000D8A363E0729383E43C8393EC3673B3E4B
:103FA00085073D3E48A73E3E9147403E1DE8413EC5
:103FB000A988433E7829453ECDCA463E226C483EFC
:103FC000BB0D4A3E96AF4B3EF8514D3E5AF44E3E25
:103FD000FF96503EE739523E12DD533E8080553EFB
:103FE0003124573E69C8583EA06C5A3E1B115C3EB6
:103FF0001CB65D3E1D5B5F3E6000613E2BA6623ECF
:10400000384C643E88F2653ED998673EAF3F693EC2
:104010000CE76A3E698E6C3E09366E3E2FDE6F3EBF
:104020009886713E012F733E34D8743E6781763E88
:10403000DC2A783ED8D4793E177F7B3E99297D3E95
:104040005FD47E3ED53F803E9C15813E85EB813E10
:1040500090C1823EDD97833E4C6E843EDD44853EBA
:10406000B01B863EA6F2863EBCC9873EF5A0883EC0
:104070007078893E2F508A3EEE278B3EEFFF8B3EB5
:1040800034D88C3E79B08D3E01898E3ECC618F3E16
:10409000B83A903EC713913E18ED913EACC6923EA1
:1040A00040A0933E3A7A943E3354953E902E963EED
:1040B000EE08973EB0E3973E73BE983E9A99993EBC
:1040C000C1749A3E4C509B3EFA2B9C3EC8079D3EC5
:1040D000DAE39D3E2FC09E3EA69C9F3E5F79A03EA8
:1040E0003B56A13E7B33A23EBA10A33E5FEEA33EF9
:1040F00025CCA43E0DAAA53E5988A63EC766A73E7C
:104100007845A83E4A24A93E8203AA3EDAE2AA3EA6
:1041100055C2AB3E34A2AC3E3482AD3E7862AE3E78
:10412000FF42AF3EC823B03EB404B13EE2E5B13E2B
:1041300054C7B23E09A9B33E008BB43E3B6DB53EB9
:10414000984FB63E5932B73E3C15B83E62F8B83E7D
:10415000CBDBB93E98BFBA3E87A3BB3EBA87BC3E15
:104160000D6CBD3EC650BE3EC235BF3E001BC03EBC
:104170008200C13E47E6C13E4FCCC23E9AB2C33E2A
:104180002899C43E1B80C53E3067C63E874EC73E59
:104190004436C83E211EC93E6406CA3EE9EECA3E08
:1041A000B2D7CB3EBEC0CC3E2EAACD3EC093CE3EB3
:1041B000B77DCF3EF167D03E6E52D13E4F3DD23EED
:1041C0007428D33EDB13D43E86FFD43E74EBD53E39
:1041D000C7D7D63E7EC4D73E57B1D83E959ED93E6E
:1041E000158CDA3EFB79DB3E2368DC3EB056DD3EC3
:1041F0005F45DE3E9434DF3E0B24E03EC713E13ED4
:10420000C503E23E49F4E23EEFE4E33EFAD5E43E84
:1042100069C7E53E1BB9E63E32ABE73E8C9DE83E02
:104220004B90E93E6F83EA3ED576EB3EA16AEC3EC9
:10423000AF5EED3E2253EE3EFA47EF3E143DF03EB8
:104240009432F13E7828F23E9F1EF33E2B15F43E49
:104250001C0CF53E7103F63E2BFBF63E28F3F73EB1
:1042600089EBF83E50E4F93E7BDDFA3E0AD7FB3E8F
:10427000DDD0FC3E36CBFD3ED2C5FE3ED3C0FF3E78
:104280002D5E003F12DC003F295A013F73D8013FE9
:10429000EF56023F9DD5023F7E54033FA2D3033F1A
:1042A000E752043F5FD2043F1A52053FF6D1053F63
:1042B0001552063F67D2063FEB52073FA2D3073F96
:1042C0009B54083FB7D5083F1557093FA5D8093F6C
:1042D000685A0A3F6EDC0A3FA65E0B3F11E10B3FB6
:1042E000BF630C3F9FE60C3FB1690D3F07ED0D3FEB
:1042F0008F700E3F5AF40E3F57780F3F98FC0F3FD8
:104300000A81103FAF05113F988A113FC30F123F3A
:104310002195123FB11A133F94A0133FAB26143FCF
:10432000F3AC143F7F33153F4DBA153F5F41163F45
:10433000A3C8163F2B50173FF5D7173FF25F183F22
:1043400042E8183FC570193F8BF9193F95821A3F13
:10435000D00B1B3F5F951B3F321F1C3F37A91C3FF3
:104360008F331D3F1BBE1D3FE9481E3F0BD41E3F30
:104370005F5F1F3F07EB1F3FE276203F1003213FA7
:10438000828F213F371C223F2EA9223F7A36233FBE
:10439000F8C3233FCA51243FDFDF243F486E253F47
:1043A000E3FC253FD28B263F151B273F9BAA273FC7
:1043B000643A283F71CA283FD15A293F85EB293FEB
:1043C0007C7C2A3FC70D2B3F569F2B3F27312C3F2C
:1043D0005DC32C3FD6552D3F92E82D3FA27B2E3F4B
:1043E000060F2F3FBEA22F3FB936303F19CB303FCB
:1043F000BB5F313FA1F4313FEC89323F8A1F333F2D
:104400006CB5333FA14B343F3BE2343F1879353F25
:104410004910363FDFA7363FB83F373FF5D7373F24
:104420007670383F5B09393F94A2393F213C3A3FCF
:1044300013D63A3F58703B3FF20A3C3FDFA53C3F62
:1044400031413D3FD7DC3D3FD1783E3F2F153F3FC7
:10445000E2B13F3FF94E403F63EC403F338A413F7A
:104460006728423FEFC6423FDC65433F1D05443F9E
:10447000D3A4443FDD44453F3BE5453F0E86463FE0
:104480003527473FD2C8473FC26A483F170D493FCB
:10449000D1AF493FF0524A3F73F64A3F6B9A4B3FC8
:1044A000B83E4C3F69E34C3F90884D3F1B2E4E3F3A
:1044B0000BD44E3F707A4F3F2921503F58C8503F90
:1044C000FC6F513F0518523F72C0523F5569533F30
:1044D0009D12543F5ABC543F8C66553F2311563FA2
:1044E00030BC563FB267573F9813583F05C0583FFE
:1044F000D76C593F1E1A5A3FC9C75A3FFB755B3FDD
:10450000A2245C3FBFD35C3F51835D3F59335E3F84
:10451000D6E35E3FD9945F3F4146603F2FF8603F4E
:10452000A4AA613F7D5D623FDC10633FC1C4633F6D
:104530001C79643FED2D653F54E3653F2099663F4C
:10454000834F673F5B06683FBABD683F9F75693F11
:104550000A2E6A3FEBE66A3F62A06B3F4F5A6C3F00
:10456000D3146D3FCCCF6D3F5D8B6E3F73476F3F74
:104570002104703F44C1703FFE7E713F3E3D723F5B
:1045800016FC723F73BB733F677B743FE23B753F22
:10459000F4FC753F9DBE763FCB80773FA243783FCA
:1045A000FF06793FF3CA793F7E8F7A3FA0547B3F65
:1045B000581A7C3FA8E07C3F8FA77D3F1E6F7E3F4F
:1045C00043377F3F0000803FB264803FB0C9803FE7
:1045D000012F813F9F94813F8FFA813FCC60823FC2
:1045E00065C7823F492E833F8195833F0DFD833F01
:1045F000ED64843F21CD843FB135853F8C9E853F5E
:10460000C407863F5071863F2FDB863F6B45873F4F
:1046100003B0873FEF1A883F3886883FD4F1883F40
:10462000CC5D893F21CA893FD2368A3FDFA38A3FCA
:1046300051118B3F177F8B3F39ED8B3FC05B8C3F18
:10464000A3CA8C3FEB398D3F8FA98D3F98198E3FC0
:10465000FC898E3FC6FA8E3FF46B8F3F87DD8F3F1C
:104660007F4F903FDBC1903F9C34913FC1A7913F6A
:104670004C1B923F438F923F9F03933F6878933F39
:104680009EED933F3963943F40D9943FB54F953F9A
:104690008FC6953FDE3D963F9AB5963FC32D973F17
:1046A00061A6973F6D1F983FE598983FD312993FB9
:1046B000378D993F07089A3F56839A3F11FF9A3FDB
:1046C000427B9B3FF0F79B3F0C759C3FA6F29C3FC3
:1046D000BD709D3F4AEF9D3F4C6E9E3FD5ED9E3F86
:1046E000D26D9F3F4EEE9F3F506FA03FC7F0A03F5F
:1046F000C572A13F41F5A13F4278A23FC2FBA23F54
:10470000C77FA33F5304A43F5D89A43FF50EA53F97
:104710001495A53FB91BA63FECA2A63FA62AA73F2A
:10472000E6B2A73FBC3BA83F19C5A83F054FA93F2C
:1047300088D9A93F9164AA3F30F0AA3F677CAB3F7C
:104740002D09AC3F8996AC3F7D24AD3FFFB2AD3F14
:104750002042AE3FE1D1AE3F3062AF3F1FF3AF3FEB
:10476000AD84B03FDB16B13FA8A9B13F0C3DB23FCD
:1047700020D1B23FCB65B33F1EFBB33F1991B43F8D
:10478000B327B53FFDBEB53FEF56B63F89EFB63F05
:10479000CA88B73FBC22B83F5EBDB83FB058B93FEA
:1047A000B2F4B93F6491BA3FCF2EBB3FEACCBB3FD6
:1047B000BE6BBC3F4A0BBD3F8FABBD3F8C4CBE3F79
:1047C0004AEEBE3FC990BF3F0134C03FF9D7C03F5A
:1047D000BB7CC13F3E22C23F82C8C23F8F6FC33FF6
:1047E0006517C43F05C0C43F7769C53FB213C63FD4
:1047F000BEBEC63F946AC73F4417C83FC6C4C83F41
:104800002173C93F5722CA3F5FD2CA3F4983CB3F7A
:104810000D35CC3FABE7CC3F359BCD3F984FCE3FDE
:10482000E604CF3F17BBCF3F3272D03F392AD13F8A
:1048300032E3D13F179DD23FE657D33FA913D43F70
:1048400068D0D43F198ED53FC74CD63F6F0CD73FA9
:1048500014CDD73FB48ED83F5951D93F0915DA3F0F
:10486000B6D9DA3F6F9FDB3F3466DC3F062EDD3F73
:10487000ECF6DD3FDFC0DE3FE78BDF3F0C58E03F6B
:104880004625E13F9DF3E13F11C3E23FAB93E33F98
:104890006265E43F4738E53F520CE63F8BE1E63F77
:1048A000F1B7E73F868FE83F5168E93F5B42EA3F57
:1048B000931DEB3F12FAEB3FCFD7EC3FCCB6ED3F69
:1048C0000F97EE3F9A78EF3F755BF03F9E3FF13FC9
:1048D0002025F23FF20BF33F1BF4F33FA5DDF43F3D
:1048E0008EC8F53FD9B4F63F8CA2F73FA791F83FA9
:1048F0003482F93F3274FA3FA167FB3F895CFC3F89
:10490000F452FD3FD84AFE3F3D44FF3F9B1F00400D
:10491000D89D0040DE1C0140AE9C01404B1D024072
:10492000B69E0240F3200340FDA30340E12704406C
:1049300097AC04402732054091B80540DD3F064062
:1049400004C806400D510740FDDA0740D465084011
:1049500091F108403D7E0940D40B0A405F9A0A401D
:10496000D8290B404DBA0B40B64B0C401ADE0C4018
:104970007E710D40E6050E404E9B0E40BA310F4051
:1049800032C90F40B761104048FB1040EE9511400E
:10499000A93112407DCE12406A6C1340780B14404E
:1049A000A8AB1440F94C154078EF15402193164000
:1049B000F837174005DE174049851840C32D1940C8
:1049C00080D719407B821A40BA2E1B4044DC1B4022
:1049D0001E8B1C40473B1D40C4EC1D409D9F1E404C
:1049E000D2531F406809204066C02040CD78214046
:1049F000A0322240E9ED2240ACAA2340E8682440DE
:104A0000A6282540EEE92540BDAC26401D71274073
:104A100011372840A4FE2840D2C72940A7922A4037
:104A2000245F2B40512D2C4037FD2C40D5CE2D40FE
:104A300034A22E405C772F40514E30401827314031
:104A4000B801324037DE32409DBC3340ED9C3440EB
:104A5000357F354073633640B649374001323840C0
:104A6000581C3940C8083A4055F73A4008E83B40DE
:104A7000E8DA3C40FFCF3D4054C73E40ECC03F40E9
:104A8000D3BC404013BB4140B2BB4240B6BE4340E2
:104A90002FC4444021CC454095D6464097E347403B
:104AA00030F3484068054A40501A4B40EC314C40C6
:104AB000444C4D406A694E4065894F4043AC50407C
:104AC0000FD25140CEFA5240962654406D55554073
:104AD0005D8756407BBC5740CFF4584066305A4003
:104AE000506F5B409AB15C4051F75D4081405F4040
:104AF0003F8D604094DD6140943163404C89644057
:104B0000CDE465402C44674072A76840B60E6A4009
:104B1000077A6B4075E96C40185D6E4002D56F40B6
:104B200044517140EED172401D577440E3E075402E
:104B3000506F774082027940899A7A4082377C4070
:104B40007FD97D4099807F4074968040466F814038
:104B5000CB4A8240132983402D0A844022EE8440B0
:104B600006D58540E4BE8640CDAB8740D09B8840CB
:104B7000FC8E894064858A40177F8B40267C8C4060
:104B8000A47C8D40A1808E4033888F406C939040F0
:104B900062A2914024B59240CDCB93406DE6944003
:104BA0001F059640F8279740124F9840817A994008
:104BB00061AA9A40CADE9B40D9179D40A8559E40E5
:104BC00052989F40F6DFA040B42CA240A87EA3409C
:104BD000F1D5A440B332A6401095A7402AFDA840C5
:104BE000256BAA4026DFAB405859AD40E0D9AE4016
:104BF000E760B0409AEEB1402583B340B61EB540A1
:104C00007DC1B640A96BB8406F1DBA4006D7BB4006
:104C1000A498BD408062BF40D734C140E70FC34075
:104C2000EDF3C4402FE1C640EFD7C84075D8CA4065
:104C30000BE3CC40FFF7CE40A217D1404842D3400F
:104C40004878D540FAB9D740C007DA40FC61DC406B
:104C500013C9DE40713DE14087BFE340CA4FE640E3
:104C6000B5EEE840C79CEB40865AEE407C28F14008
:104C70003E07F44064F7F64090F9F9406B0EFD40B2
:104C8000531B00417EB90141166203418415054161
:104C900034D40641979E084124750A415A580C4164
:104CA000BF480E41DE4610414E531241A96E1441D9
:104CB00099991641C8D41841F6201B41E77E1D4141
:104CC0006BEF1F4162732241BB0B254170B9274135
:104CD0008F7D2A4136592D41994D3041FE5B33413C
:104CE000C485364163CC39416C313D4192B6404177
:104CF000A55D4441992848418D194C41C732504126
:104D0000BE7654411EE85841CD895D41F35E624153
:104D1000FD6A6741A8B16C410D377241A7FF774129
:104D20005F107E41503782412F9085411B1689418B
:104D3000B7CC8C4115B89041BADC9441B23F99414F
:104D4000AAE69D4100D8A241E71AA84187B7AD4124
:104D500029B7B3416824BA41710BC141537AC841A4
:104D60005B81D0418D33D9413CA7E241CCF6EC4187
:104D7000A641F841BD560242F53309425DD41042C6
:104D8000685A194223F1224218CF2D42663A3A421C
:104D9000BF8E48426746594214086D42985E82426F
:104DA0006FDB90426BF7A242E63FBA421D4BD942FD
:104DB0008E600243FDF822434B4C594362F9A243F3
:104DC0007BF92244010202030405060708090A0BC5
:104DD0000C0D0E0F1010000000000000000001027A
:104DE0000304060708090000000001020304000094
:104DF000104E00080000002044000000A02300081E
:104E0000544E000844000020E4040000B0230008D1
:104E10000000000000000000000000000000000092
:104E20000000000000000000000000000000000082
:104E30000000000000000000000000000000000072
:104E400001000000100000000000000000127A00C5
:044E5000000000005E
:04000005080000ED02
:00000001FF
